{
  "contractName": "HashNotary",
  "abi": [
    {
      "constant": true,
      "inputs": [
        {
          "name": "",
          "type": "address"
        },
        {
          "name": "",
          "type": "uint256"
        }
      ],
      "name": "hashes",
      "outputs": [
        {
          "name": "",
          "type": "uint256"
        }
      ],
      "payable": false,
      "stateMutability": "view",
      "type": "function"
    },
    {
      "constant": false,
      "inputs": [
        {
          "name": "contentHash",
          "type": "uint256"
        }
      ],
      "name": "save",
      "outputs": [],
      "payable": false,
      "stateMutability": "nonpayable",
      "type": "function"
    },
    {
      "constant": true,
      "inputs": [
        {
          "name": "contentHash",
          "type": "uint256"
        }
      ],
      "name": "getTimestamp",
      "outputs": [
        {
          "name": "",
          "type": "uint256"
        }
      ],
      "payable": false,
      "stateMutability": "view",
      "type": "function"
    }
  ],
  "bytecode": "0x608060405234801561001057600080fd5b5061022c806100206000396000f300608060405260043610610057576000357c0100000000000000000000000000000000000000000000000000000000900463ffffffff168063158531131461005c5780631b862027146100bd578063b633620c146100ea575b600080fd5b34801561006857600080fd5b506100a7600480360381019080803573ffffffffffffffffffffffffffffffffffffffff1690602001909291908035906020019092919050505061012b565b6040518082815260200191505060405180910390f35b3480156100c957600080fd5b506100e860048036038101908080359060200190929190505050610150565b005b3480156100f657600080fd5b50610115600480360381019080803590602001909291905050506101a7565b6040518082815260200191505060405180910390f35b6000602052816000526040600020602052806000526040600020600091509150505481565b426000803373ffffffffffffffffffffffffffffffffffffffff1673ffffffffffffffffffffffffffffffffffffffff16815260200190815260200160002060008381526020019081526020016000208190555050565b60008060003373ffffffffffffffffffffffffffffffffffffffff1673ffffffffffffffffffffffffffffffffffffffff16815260200190815260200160002060008381526020019081526020016000205490509190505600a165627a7a72305820244e23750bce19643d7a48e56eebbc7611b896a76fe795df8c0ab4a2df247bc60029",
  "source": "pragma solidity ^0.4.24;\n\n/**\n* @title A persistor of hashes per user with timestamps\n*/\ncontract HashNotary {\n  /**\n  * @notice Storage of hashes. Stored as Sender => (Hash => Timestamp)\n  */\n  mapping(address => mapping(uint => uint)) public hashes;\n\n  /**\n  * @notice Saves the hash of a content\n  *\n  * @param contentHash - 256bit hash of some content\n  */\n  function save(uint contentHash) public {\n    hashes[msg.sender][contentHash] = block.timestamp;\n  }\n\n  /**\n  * @notice Fetches the block timestamp for when a hash was saved\n  *\n  * @param contentHash - 256bit hash of some content\n  * @return timestamp as seconds since unix epoch\n  */\n  function getTimestamp (uint contentHash) public view returns(uint) {\n    return hashes[msg.sender][contentHash];\n  }\n}\n",
  "sourcePath": "/Users/michael/workspace/consensys/imagineering/sojourn/contracts/HashNotary.sol",
  "compiler": {
    "name": "solc",
    "version": "0.4.24+commit.e67f0147.Emscripten.clang"
  },
  "schemaVersion": "3.0.0-beta.0",
  "updatedAt": "2018-11-05T19:54:05.057Z"
}